:1000000038C100000C94231F0C944E1F0C94791FD0
:100010000C94A41F0C94CF1F0C94FA1F0C94252051
:100020000C94502057C1000055C1000053C100007E
:1000300051C100000C94501E4DC100004BC1000086
:1000400049C1000047C1000045C1000043C1000094
:10005000F8C100003FC100003DC100000C947B20AE
:1000600039C100000C94DC190C94121A33C1000041
:1000700031C100002FC100002DC100002BC10000C4
:1000800029C1000027C1000025C100000CC30000E9
:1000900021C100001FC100001DC100001BC10000E4
:1000A00019C1000017C1000015C1000013C10000F4
:1000B00011C100000C949B130DC100000BC1000086
:1000C00009C1000007C1000005C1000003C1000014
:1000D00001C10000FFC00000FDC00000FBC0000027
:1000E000F9C00000084AD73B3BCE016E84BCBFFD7F
:1000F000C12F3D6C74319ABD56833DDA3D00C77FF8
:1001000011BED9E4BB4C3E916BAAAABE0000008090
:100110003F00FD1EC71ECF1EDB1EE81E091F161F57
:1001200059215E2163216D217721F02181218921CF
:1001300091219B21A521AF21BE21C821F021D221EF
:10014000DC21E62113221622052209220F224D224C
:100150001A221E22242228222C22322236223A223D
:100160004D224022442248220200000A0B02090CC0
:100170000D0E08070304010000000000000000004D
:10018000000000000000000000000000000000006F
:10019000000000000012111000000000000000002C
:1001A000000000000000000000000000000000014E
:1001B0000210202008081020401020408002010278
:1001C0000108040201010204081020408080402040
:1001D000100804020180040201804020100804027B
:1001E00001080402010102040810204080010204F9
:1001F00008102040800505050507050808080802C5
:100200000202020A0A0808040404040101010101AF
:100210000101010303030303030303040707070C9E
:100220000C0C0C0C0C0C0C02020202060606060654
:100230000606060B0B0B0B0B0B0B0B00002200250D
:100240000028002B002E00310034000201000005C0
:100250000108010B0100002100240027002A002DC5
:10026000003000330001010000040107010A010011
:10027000441A11241FBECFEFD1E2DEBFCDBF00E094
:100280000CBF15E0A0E0B2E0E8EFF6E400E00BBF41
:1002900002C007900D92A232B107D9F726E0A2E280
:1002A000B5E001C01D92A936B207E1F711E0C9E33C
:1002B000D1E000E006C021970109802FFE010E94D5
:1002C0005923C833D10780E00807A9F70E94721AA2
:1002D0000C947A2395CECF93DF93D62FC42F482F3B
:1002E0006EE186EA0E946A0D0E9401134D2F6FE1B4
:1002F00086EA0E946A0D0E9401134C2F60E286EA92
:100300000E946A0DDF91CF910C94011345EE60E0DD
:1003100086EA0E94191340E06DE286EA0E946A0DA7
:100320000E94011348E06DE286EA0E946A0D0E9475
:1003300001134BE061E386EA0E946A0D0E940113FB
:100340004AE06CE286EA0E946A0D0E94011343E0D3
:1003500060E081E0C0CF9C01BC0180E090E037FF0D
:1003600004C001970E943F1702C00E943D1720E081
:1003700030E040E85BE30C941F180895CF92DF92C1
:10038000EF92FF920F931F93CF93DF93CDB7DEB71A
:100390002C970FB6F894DEBF0FBECDBF86E09E014E
:1003A000295F3F4FF901982F11929A95E9F78E0135
:1003B0000F5F1F4FF80111928A95E9F742E050E074
:1003C00062E386EA0E94090E0E940113980142E04E
:1003D00050E066E386EA0E94090E0E9401138885B8
:1003E00090E0982F88272F81822BB5DF6B017C014D
:1003F0008A8190E0982F88272981822BACDF9B018E
:10040000AC01C701B60190580E944D1620E030E0C3
:1004100044E353E40E941F1829EF3FE049E450E40D
:100420000E94A4162C960FB6F894DEBF0FBECDBF67
:10043000DF91CF911F910F91FF90EF90DF90CF90C0
:1004400008951F920F920FB60F9211240BB60F92C0
:100450002F933F934F935F936F937F938F939F93CC
:10046000AF93BF93EF93FF93CF93DF93CDB7DEB7F7
:100470002897DEBFCDBF80E89BEF909385008093E7
:1004800084008091800590918105A0918205B091B2
:1004900083058D839E83AF83B88780917C0590917F
:1004A0007D05A0917E05B0917F0589839A83AB83FA
:1004B000BC836D817E818F81988520912C05309140
:1004C0002D0540912E0550912F050E94D91520E051
:1004D00030E040E752E40E941F1826E636E646E088
:1004E00051E40E94A41660933405709335058093FF
:1004F00036059093370569817A818B819C812091A3
:1005000028053091290540912A0550912B050E941C
:10051000D91520E030E040E752E40E941F1826E69B
:1005200036E646E051E40E94A416609330057093CD
:10053000310580933205909333058D819E81AF8183
:10054000B88580932C0590932D05A0932E05B0932C
:100550002F0589819A81AB81BC8180932805909376
:100560002905A0932A05B0932B0528960FB6F89479
:10057000DEBF0FBECDBFDF91CF91FF91EF91BF9155
:10058000AF919F918F917F916F915F914F913F912B
:100590002F910F900BBE0F900FBE0F901F901895CC
:1005A000609180057091810580918205909183050D
:1005B00020917C0530917D0540917E0550917F050D
:1005C0000C94DA1508958F929F92AF92BF92CF92BA
:1005D000DF92EF92FF920F931F93CF93DF9300D0A0
:1005E0001F92CDB7DEB70CE612E0F80120A131A1D1
:1005F00042A153A129833A834B835C830E94F01369
:1006000029813A814B815C810E94FE0C60934005F8
:10061000709341058093420590934305AFDE60934C
:100620004405709345058093460590934705809057
:10063000440590904505A0904605B090470560910F
:10064000400570914105809142059091430528E451
:1006500031EE4AE75FE30E941F186B017C0120E046
:1006600037ED43EA5CE3C501B4010E941F189B010A
:10067000AC01C701B6010E94DA15F80160A371A3AD
:1006800082A393A30F900F900F900F90DF91CF91C3
:100690001F910F91FF90EF90DF90CF90BF90AF90A0
:1006A0009F908F9008951F920F920FB60F92112472
:1006B0000BB60F922F933F934F935F936F937F935C
:1006C0008F939F93AF93BF93CF93DF93EF93FF935A
:1006D000C1E7D0E0188277DF80E79FEF9093950025
:1006E0008093940081E08883FF91EF91DF91CF9117
:1006F000BF91AF919F918F917F916F915F914F913A
:100700003F912F910F900BBE0F900FBE0F901F9037
:100710001895EF920F931F93CF93DF938091570516
:10072000882381F00E94F013009164051091650503
:10073000209166053091670560177107820793075E
:1007400009F053C080915405882309F4ADC00E947C
:10075000F013009158051091590520915A053091D8
:100760005B05601771078207930709F49DC00E941B
:10077000F013609358057093590580935A05909330
:100780005B05609118027091190280911A02909194
:100790001B0220E030E040EA50E40E94D91560934B
:1007A00018027093190280931A0290931B0280E042
:1007B00090E0ACE0B3EC80934E0290934F02A09394
:1007C0005002B09351028DEC9CECACE4BDE38093FD
:1007D000480590934905A0934A05B0934B05E12C39
:1007E00000E020E041E060E03DC00E94F013609333
:1007F0006405709365058093660590936705609125
:1008000018027091190280911A0290911B0220E047
:1008100030E040EA50E40E94DA15609318027093C9
:10082000190280931A0290931B0280E090E0ABE1E2
:10083000B3E480934E0290934F02A0935002B09382
:1008400051028DEC9CECACE4BDEB80934805909399
:100850004905A0934A05B0934B05E12C00E020E048
:1008600040E061E080E00E943F0F1092A2021092EF
:10087000220580915605882309F4DFC00E94F013F9
:10088000009160051091610520916205309163052A
:10089000DC01CB01801B910BA20BB30BC297A1050E
:1008A000B10508F0B2C0C9C080915505882381F018
:1008B0000E94F01300915C0510915D0520915E058A
:1008C00030915F05601771078207930709F041C0F7
:1008D0008091A2028111CDCF10927C0510927D05EE
:1008E00010927E0510927F0510928005109281056E
:1008F000109282051092830553DE60931802709364
:10090000190280931A0290931B0210924E021092C9
:100910004F02109250021092510210924C05109208
:100920004D0510924E0510924F05109248051092F9
:10093000490510924A0510924B05E12C00E020E099
:1009400040E060E081E00E943F0F81E08093A202DE
:100950008ECF0E94F01360935C0570935D058093C9
:100960005E0590935F052DEC3CEC4CEC5DE36091F3
:100970004C0570914D0580914E0590914F050E9458
:10098000D915EB01182F092F23E333E343E350EC90
:100990000E94A01687FD0FC020E030E0A901BE0133
:1009A000812F902F0E94141818164CF4C0E0D0E04C
:1009B00010E000E004C0C3E3D3E313E300ECCE0196
:1009C000A12FB02F80934C0590934D05A0934E0519
:1009D000B0934F0580E090E0ABE1B3E480934E022A
:1009E00090934F02A0935002B0935102EE24E394EF
:1009F00000E020E040E060E080E00E943F0F1092C5
:100A0000A20281E08093220534CF0E94F01360930C
:100A100060057093610580936205909363050E9461
:100A20006A1081110AC081E00E946510DF91CF91A8
:100A30001F910F91EF900C946D10DF91CF911F914A
:100A40000F91EF900895EF920F9380915005909140
:100A50005105009709F440C004F58E3F9F4F0CF4F8
:100A60005EC080E090E0A0E7B2E480933C05909304
:100A70003D05A0933E05B0933F0580E090E0A0E7E0
:100A8000B2EC8093380590933905A0933A05B09362
:100A90003B05E12C01E020E03AC003970CF03FC099
:100AA00080E090E0A0E7B2EC80933C0590933D0598
:100AB000A0933E05B0933F0580E090E0A0E7B2E44C
:100AC0008093380590933905A0933A05B0933B0580
:100AD000E12C00E021E01BC010923C0510923D0586
:100AE00010923E0510923F0510923805109239057C
:100AF00010923A0510923B05E12C00E020E040E026
:100B000060E081E00E943F0F1092230508C040E0A2
:100B100060E080E00E943F0F81E0809323050F9109
:100B2000EF90F7CD80912305882389F080917C0593
:100B300090917D05A0917E05B0917F058093800501
:100B400090938105A0938205B093830508956091E9
:100B50008005709181058091820590918305209197
:100B60007C0530917D0540917E0550917F050E9466
:100B7000D91520E030E040E251EC0E941F182DEC26
:100B80003CEC4CE45DE30E941F1860933C057093BD
:100B90003D0580933E0590933F05609180057091DF
:100BA0008105809182059091830520917C0530918B
:100BB0007D0540917E0550917F050E94D91520E06A
:100BC00030E040EA50E40E941F182DEC3CEC4CE46D
:100BD0005DE30E941F186093380570933905809378
:100BE0003A0590933B0508954F925F926F927F92E2
:100BF0008F929F92AF92BF92CF92DF92EF92FF922D
:100C0000CF93DF93CDB7DEB760970FB6F894DEBF12
:100C10000FBECDBF609134057091350580913605CA
:100C20009091370520913005309131054091320582
:100C3000509133050E94DA1520E030E040E05FE398
:100C40000E941F18609356027093570280935802B7
:100C50009093590260914E0270914F028091500220
:100C600090915102209156023091570240915802C2
:100C7000509159020E94D915609352027093530209
:100C800080935402909355028091A202811179C001
:100C90008090360290903702A0903802B0903902CE
:100CA00060915202709153028091540290915502CA
:100CB00020E030E0A9010E94141818168CF460910D
:100CC000520270915302809154029091550220E09B
:100CD00030E040E752E40E94A01687FF1DC010C01C
:100CE000609152027091530280915402909155028A
:100CF00020E030E040E752EC0E941418181664F42B
:100D000080E090E0A0E2B0E48093A7029093A80274
:100D1000A093A902B093AA0260915202709153026B
:100D2000809154029091550220E030E0A9010E9488
:100D3000141818168CF4609152027091530280912D
:100D400054029091550220E030E040E752E40E94C6
:100D5000141887FF11C03AC060915202709153027B
:100D6000809154029091550220E030E040E752EC2F
:100D70000E94A016181654F180E090E0A0E8B0E4BC
:100D80001DC080912205882369F0809042029090D6
:100D90004302A0904402B090450280E090E0A0ECB5
:100DA000B0E40CC08090360290903702A0903802D8
:100DB000B090390280E090E0A0E0B0E48093A70218
:100DC0009093A802A093A902B093AA026091560240
:100DD00070915702809158029091590220915A02C5
:100DE00030915B0240915C0250915D020E94D915E6
:100DF0006093620270936302809364029093650231
:100E000060913A0270913B0280913C0290913D02C8
:100E100040905202509053026090540270905502DC
:100E2000C0905E02D0905F02E0906002F09061029C
:100E30002FE632E143E85AE30E941F18A301920112
:100E40000E941F189B01AC01C701B6010E94DA1570
:100E500060935E0270935F028093600290936102E0
:100E600060915E0270915F028091600290916102D8
:100E7000C090A702D090A802E090A902F090AA0228
:100E80002601370177FA709477F87094A3019201E4
:100E90000E94A01687FD17C060915E0270915F02EC
:100EA0008091600290916102A70196010E9414183E
:100EB000181664F080915E0290915F02A09160022A
:100EC000B091610205C0D301C20102C0D701C601C1
:100ED00080935E0290935F02A0936002B0936102E0
:100EE0008091520290915302A0915402B091550208
:100EF00089839A83AB83BC8380915E0290915F0269
:100F0000A0916002B09161028D839E83AF83B88708
:100F100080913E0290913F02A0914002B091410227
:100F200089879A87AB87BC87809162029091630220
:100F3000A0916402B09165028D879E87AF87B88BC0
:100F40002FE632E143E85AE3C501B4010E941F18BD
:100F500029813A814B815C810E941F182D813E813D
:100F60004F8158850E94DA154B015C012FE632E172
:100F700043E85AE369857A858B859C850E941F1812
:100F80002D853E854F8558890E941F189B01AC0115
:100F9000C501B4010E94D91560936602709367027F
:100FA000809368029093690260916A0270916B026B
:100FB000072E000C880B990B0E943F174B015C0118
:100FC0006091660270916702809168029091690257
:100FD000A30192010E94A01687FD17C060916602CE
:100FE000709167028091680290916902A701960151
:100FF0000E94141818165CF0C0906602D090670228
:10100000E0906802F090690202C073016201A701DA
:101010009601C501B4010E941F1860936602709387
:1010200067028093680290936902809156029091C2
:101030005702A0915802B091590280935A0290939E
:101040005B02A0935C02B0935D0260960FB6F894C9
:10105000DEBF0FBECDBFDF91CF91FF90EF90DF904D
:10106000CF90BF90AF909F908F907F906F905F9048
:101070004F9008954F925F926F927F928F929F92BE
:10108000AF92BF92CF92DF92EF92FF9289DA609394
:101090002002709321028093220290932302609198
:1010A00018027091190280911A0290911B022091EE
:1010B00020023091210240912202509123020E948D
:1010C000D91560931C0270931D0280931E029093A9
:1010D0001F028091A202811109C0609100027091EB
:1010E000010280910202909103021BC080912205AF
:1010F000882379F0609100027091010280910202D0
:1011000090910302C12CD12C30E8E32E30E4F32E71
:101110000DC060910C0270910D0280910E029091B1
:101120000F02C12CD12CE12C20E4F22EC092A3029C
:10113000D092A402E092A502F092A60220911C0295
:1011400030911D0240911E0250911F020E941F18F3
:1011500027E137EB41ED58E30E941F1860933002FE
:101160007093310280933202909333026091340283
:1011700070913502072E000C880B990B0E943F17C7
:101180002B013C016091300270913102809132025A
:1011900090913302C090A302D090A402E090A502E7
:1011A000F090A60246015701B7FAB094B7F8B09490
:1011B000A50194010E94A01687FD17C0609130021E
:1011C000709131028091320290913302A701960111
:1011D0000E94141818165CF0C0903002D0903102B2
:1011E000E0903202F090330202C075016401A70161
:1011F0009601C301B2010E941F18609330027093E0
:1012000031028093320290933302FF90EF90DF908F
:10121000CF90BF90AF909F908F907F906F905F9096
:101220004F9008954F925F926F927F928F929F920C
:10123000AF92BF92CF92DF92EF92FF92CF93DF9364
:10124000CDB7DEB728970FB6F894DEBF0FBECDBF7F
:1012500080918C0290918D02A0918E02B0918F02AC
:1012600089839A83AB83BC83809030029090310253
:10127000A0903202B0903302C0906602D090670214
:10128000E0906802F090690223EC35EF48EA5EE3F3
:10129000609148057091490580914A0590914B05F0
:1012A0000E94D91520914C0530914D0540914E0575
:1012B00050914F050E94DA15A50194010E94DA159C
:1012C000A70196010E94DA1560938402709385024B
:1012D00080938602909387026091840270918502C8
:1012E000809186029091870229813A814B815C81AD
:1012F0000E94D915609388027093890280938A02B4
:1013000090938B02609188027091890280918A0289
:1013100090918B0220E030E0A9010E941418181669
:101320008CF4609188027091890280918A02909178
:101330008B0220E030E046E952E40E94141887FF57
:1013400011C019C0609188027091890280918A024F
:1013500090918B0220E030E046E952EC0E94A0160A
:1013600018164CF010929C0210929D0210929E0250
:1013700010929F025BC160918802709189028091F6
:101380008A0290918B0220E030E0A9010E9414189B
:1013900018168CF4609188027091890280918A02FB
:1013A00090918B0220E030E040E450E40E94A016CF
:1013B00087FF2AC010C060918802709189028091D5
:1013C0008A0290918B0220E030E040E450EC0E94D1
:1013D00014181816CCF480906C0290906D02A090B6
:1013E0006E02B0906F024090700250907102609057
:1013F000720270907302C0907402D0907502E090F7
:101400007602F090770218C080907802909079026E
:10141000A0907A02B0907B0240907C0250907D02B6
:1014200060907E0270907F02C0908002D090810216
:10143000E0908202F090830220919002309191021C
:10144000409192025091930269817A818B819C81B3
:101450000E94D915609398027093990280939A0222
:1014600090939B02209188023091890240918A02D8
:1014700050918B028091940290919502A0919602D6
:10148000B09197028D839E83AF83B887C301B20169
:101490000E941F189B01AC016D817E818F81988510
:1014A0000E94DA15609394027093950280939602DD
:1014B00090939702609194027091950280919602A8
:1014C0009091970220E030E04FE753EC0E94A01685
:1014D00087FD19C0609194027091950280919602E7
:1014E0009091970220E030E04FE753E40E941418F7
:1014F000181674F08091940290919502A091960232
:10150000B091970209C080E090E0AFE7B3EC04C06F
:1015100080E090E0AFE7B3E480939402909395026B
:10152000A0939602B093970220918802309189028D
:1015300040918A0250918B02409094025090950203
:101540006090960270909702809198029091990213
:10155000A0919A02B0919B028D839E83AF83B8873E
:10156000C501B4010E941F18A30192010E94DA155F
:101570004B015C012D813E814F815885C701B60129
:101580000E941F189B01AC01C501B4010E94D9152E
:1015900060939C0270939D0280939E0290939F02A1
:1015A00060919C0270919D0280919E0290919F0299
:1015B00020E030E04FE753EC0E94A01687FD19C0F1
:1015C00060919C0270919D0280919E0290919F0279
:1015D00020E030E04FE753E40E941418181674F02E
:1015E00080919C0290919D02A0919E02B0919F02D9
:1015F00009C080E090E0AFE7B3EC04C080E090E089
:10160000AFE7B3E480939C0290939D02A0939E0267
:10161000B0939F0289819A81AB81BC8180939002B3
:1016200090939102A0939202B093930228960FB6E2
:10163000F894DEBF0FBECDBFDF91CF91FF90EF904A
:10164000DF90CF90BF90AF909F908F907F906F90E2
:101650005F904F9008950EDDC7DAE4DD63CAEF9224
:10166000FF920F931F93DBD030D4D4D50E94F01398
:10167000009124051091250520912605309127051C
:10168000DC01CB01801B910BA20BB30B4497A1058E
:10169000B10528F10E94F01360932405709325058D
:1016A0008093260590932705CED9D5DFE0903805A5
:1016B000F090390500913A0510913B0520913C05C9
:1016C00030913D0540913E0550913F0560919C024F
:1016D00070919D0280919E0290919F0219D71F9157
:1016E0000F91FF90EF900895F89426E040E855E2BE
:1016F00060E070E089E995E00E947719B1D7D4D70E
:10170000F7D7C6D10E9486012AD179D7BFD48FD30B
:1017100078940895E9DF0E949513E3D7BED781E05E
:1017200090E09093A1028093A0028FEF9FEF90939F
:101730006B0280936A02909335028093340208957D
:101740008ECFAF92BF92CF92DF92EF92FF920F9324
:101750001F93962F682F70E08FEF989F600D711D7B
:101760001124641B750B611584E0780714F06FEF8A
:1017700073E077FF02C060E070E0072E000C880B7A
:10178000990B1F921F921F9224E62F932CE9A22EF1
:10179000BB24BA94CB2CDB2CEE24EA9413E0F12E7C
:1017A00000E010E020E030E0A9010E94B922AB0186
:1017B0009B012C5E3F4F0F900F900F900F9029329E
:1017C0003105E8F09B0177FF04C022273327261B51
:1017D000370B253131059CF0FB01FC96E937F1050B
:1017E00058F02D3331055CF06C597F4F693C710521
:1017F00030F482E090E005C081E090E002C080E03B
:1018000090E057FF03C09195819591091F910F9129
:10181000FF90EF90DF90CF90BF90AF900895CF9260
:10182000DF92EF92FF920F931F93CF93DF931F925C
:10183000CDB7DEB789E995E00E94851843970CF48F
:1018400084C089E995E00E949F188E37910509F0C0
:101850007CC089E995E00E949F1889E995E00E9483
:101860009F1889E995E00E949F188338910509F037
:101870006CC008E010E083E8E82EF12C89E995E0DF
:101880000E949F18E80EF91E01501109B9F789E965
:1018900095E00E949F18182F6701C80ED11C89E996
:1018A00095E00E949F18F82E89E995E00E949F1804
:1018B000082F89E995E00E949F18682F89E995E033
:1018C00069830E949F18E82EC00ED11CCF0CD11C3A
:1018D000C80ED11C89E995E00E949F186981C60E47
:1018E000D11CC094C81231C016FF04C081E080939F
:1018F000540502C01092540513FF04C081E0809388
:10190000550502C01092550514FF04C081E0809374
:10191000560502C01092560512FF04C081E0809364
:10192000570502C01092570549E050E08E2D09DF9F
:10193000909351058093500544E150E06F2D802F26
:1019400000DF90935305809352050F90DF91CF9164
:101950001F910F91FF90EF90DF90CF90089543ED8E
:101960006FE082ED66D64FE160E282EDB3D049D6FA
:1019700040EB63E282EDAED044C6CF92DF92EF92AD
:10198000FF929C016A017B01BC0180E090E037FF7F
:1019900004C001970E943F1702C00E943D1729E230
:1019A0003CE54FE85DE30E941F18A70196010E94E5
:1019B000D915FF90EF90DF90CF900895CF93DF93EC
:1019C0001F921F92CDB7DEB719821A829E012F5F38
:1019D0003F4F42E050E06AE282ED1BD112D68A818D
:1019E00090E0982F8827298144EE53E86EE67FE344
:1019F000822B0F900F90DF91CF91BFCF4F925F92CC
:101A00006F927F928F929F92AF92BF92CF92DF920E
:101A1000EF92FF926B017C0149015A01CFDF2B014C
:101A20003C018091680590916905A0916A05B0918B
:101A30006B05C0926805D0926905E0926A05F09244
:101A40006B05A7019601281B390B4A0B5B0BCA01DA
:101A5000B9010E943D172FE632E143E85AE30E94A4
:101A60001F189B01AC01C301B2010E941F18A50100
:101A700094010E94DA15FF90EF90DF90CF90BF9015
:101A8000AF909F908F907F906F905F904F90089550
:101A90001092B900ECEBF0E0108284EC80838AE0D5
:101AA0008093B8000895ECEBF0E08081806680833D
:101AB0000895ECEBF0E08081806880830895809148
:101AC000BC0087FFFCCF0895ECEBF0E080818061E3
:101AD000808308950F931F93CF93DF931F92CDB709
:101AE000DEB7162F042F8983DEDFE9DF9091B9007E
:101AF000987F8981983029F58093BB008091BC0044
:101B00008F7D8093BC00D5DFDADF8091B900887FBC
:101B10008831C9F41093BB00CCDFD1DF8091B900CC
:101B2000887F883211F08BEF0FC00093BB00C1DFBC
:101B3000C6DF8091B900887F8832A9F7C5DF80E0D1
:101B400003C088EF01C089EF0F90DF91CF911F9103
:101B50000F9108950F931F93CF93DF93C82FD62F24
:101B60008A01A1DFACDF8091B900887F883009F05D
:101B700040C0C093BB008091BC008F7D8093BC00AF
:101B800098DF9DDF8091B900887F8831A1F5D093DF
:101B9000BB008FDF94DF8091B900887F883269F5C0
:101BA00082DF8DDF8091B900887F803141F5C1608F
:101BB000C093BB008091BC008F7D8093BC0079DF17
:101BC0007EDF8091B900887F8034D9F48091BC0099
:101BD0008F7B8093BC006DDF72DF8091B900887FBE
:101BE000883589F48091BB00F80180836DDF80E047
:101BF0000BC088EF09C089EF07C08BEF05C08DEFE0
:101C000003C08AEF01C08CEFDF91CF911F910F913C
:101C10000895CF92DF92EF92FF920F931F93CF938D
:101C2000DF93C82FD62F7A0189013DDF48DF8091ED
:101C3000B900887F883009F05FC0C093BB008091F5
:101C4000BC008F7D8093BC0034DF39DF8091B90008
:101C5000887F883109F052C0D068D093BB0029DF5B
:101C60002EDF8091B900887F883209F049C01BDFE0
:101C700026DF8091B900887F803109F043C0C160C0
:101C8000C093BB008091BC008F7D8093BC0011DFAE
:101C900016DF8091B900887F8034B1F5E80100E05B
:101CA00010E0670181E0C81AD1080E151F0509F17F
:101CB0008091BC000C151D0559F48F7B8093BC00EE
:101CC000F8DEFDDE8091B900887F883559F01EC0AE
:101CD00080648093BC00EDDEF2DE8091B900887FE5
:101CE0008035B1F48091BB0088830F5F1F4F219630
:101CF000DCCFEADE80E00DC088EF0BC089EF09C0C1
:101D00008BEF07C08DEF05C08AEF03C08FEF01C0D6
:101D10008EEFDF91CF911F910F91FF90EF90DF90A9
:101D2000CF9008958F929F92AF92BF92CF92DF9201
:101D3000EF92FF920F931F93CF93DF93182F7B01A6
:101D4000EA0169014DD59601DD0C440B550B0E944B
:101D50001B234B015C01C7010F2C000CAA0BBB0B12
:101D600088169906AA06BB0680F0A7014A5F5F4F56
:101D7000052E000C660B770B481559056A057B0587
:101D800020F0602F812F0E948A22CE010D2E000CA0
:101D9000AA0BBB0B88169906AA06BB06E8F0AE0193
:101DA0004A5F5F4F052E000C660B770B48155905EF
:101DB0006A057B0588F061E06027812FDF91CF9174
:101DC0001F910F91FF90EF90DF90CF90BF90AF9059
:101DD0009F908F900C948A22DF91CF911F910F9149
:101DE000FF90EF90DF90CF90BF90AF909F908F903B
:101DF000089561E0682784E40C948A2261E06827F2
:101E000080E40C948A2261E0682782E40C948A22A0
:101E100061E068278FE10C948A2261E0682781E203
:101E20000C948A2261E0682783E20C948A2261E0A4
:101E30008DE30E944E2261E084E40E944E2261E024
:101E400080E40E944E2261E082E40E944E2261E022
:101E50008FE10E944E2261E081E20E944E2261E009
:101E600083E20E944E2280E0C4DF80E0C7DF80E092
:101E7000CADF80E0CDDF80E0D0DF80E0D3CFEF921B
:101E80000F938093B5026093760540937505209378
:101E9000780500937705E09274050F91EF9008950F
:101EA000CF93C82FA6DF8C2FA9DF8C2FACDF8C2F10
:101EB000AFDF8C2FB2DF8C2FCF91B4CFEF920F9387
:101EC000E11030DF0F91EF900895EF920F9301E052
:101ED00028EE33E044E051E068EC70E08DE322DF6F
:101EE0007FD4683B7B4081059105E0F079D4683B65
:101EF0007B4081059105E0F073D46C3A7D4081050B
:101F00009105B0F480E075DF80E082DF81E076DF6C
:101F100081E00F91EF9081CF80917905882381F046
:101F200080E0BEDF81E065DF81E00F91EF9070CF50
:101F300080917B05882381F381E00F91EF90B0CFF2
:101F400080E0AEDFE090B50200E028EE33E042E34F
:101F500050E060E070E084E4B1DFE090B50228EE8C
:101F600033E042E350E060E070E08FE1A7DFE09013
:101F7000B50228EE33E046E950E064E670E084E420
:101F80009DDFE090B50228EE33E046E950E064E6DC
:101F900070E08FE193DFE09076052AEF30E044E6D1
:101FA00050E060E070E080E489DFE09076052AEFA1
:101FB00030E044E650E060E070E081E27FDFE090F6
:101FC00075052AEF30E044E650E060E070E080E420
:101FD00075DFE09075052AEF30E044E650E060E000
:101FE00070E082E46BDFE09075052AEF30E044E6B4
:101FF00050E060E070E081E261DFE09075052AEF7B
:1020000030E044E650E060E070E083E257DFE090CB
:10201000780528EC30E044E650E060E070E084E4CD
:102020004DDFE090780528EC30E044E650E060E0D9
:1020300070E080E443DFE090770528EC30E044E690
:1020400050E060E070E08FE139DFE090770528EC48
:1020500030E044E650E060E070E081E22FDFE090A5
:1020600074052CE231E046E950E060E070E082E483
:1020700025DFE09074052CE231E046E950E060E0B5
:1020800070E083E21BDF0F91EF90089561E089E03B
:102090000E944E229FB7F894E2E0F1E080818F7BAE
:1020A00080839FBF08959FB7F894E2E0F1E08081BC
:1020B000806480839FBF08959FB7F894E2E0F1E0C9
:1020C00080818F7B80839FBF089580937B05809361
:1020D000B602089580917B05089582D360937005C0
:1020E00070937105809372059093730508958093A2
:1020F0007905089580917905089572D360936C05F0
:1021000070936D0580936E0590936F0508958130EF
:10211000910529F46091B3027091B4021EC082301F
:10212000910529F46091B1027091B20216C083301A
:10213000910529F46091AF027091B0020EC0843015
:10214000910529F46091AD027091AE0206C0059729
:1021500031F46091AB027091AC0289E081C30895C3
:102160000F931F9380917B058823C9F039D3009189
:102170007005109171052091720530917305DC0195
:10218000CB01801B910BA20BB30B813D9740A105A6
:10219000B10520F091DF10927B0501C084DF8091B2
:1021A00079058823C9F01CD300916C0510916D0549
:1021B00020916E0530916F05DC01CB01801B910BE6
:1021C000A20BB30B893C9105A105B10520F074DF8A
:1021D0001092790501C067DF8091B702882341F032
:1021E00081E090E094DF1092B70281E080937A055D
:1021F00080917A05882359F0F3D2693B7B408105B1
:10220000910528F082E090E082DF10927A051F911C
:102210000F910895A5DFE4D26838734181059105D7
:1022200018F080917B05811178C4089529B122FBB3
:10223000882780F990E04B9B03C0892B19F010C0D0
:10224000892B71F0609180057091810580918205E4
:102250009091830520E030E040E85FE3ABD40DC00F
:102260006091800570918105809182059091830530
:1022700020E030E040E85FE39CD4609380057093F9
:102280008105809382059093830508952CB124FBEA
:10229000882780F990E0659B03C0892B19F010C056
:1022A000892B71F060917C0570917D0580917E0590
:1022B00090917F0520E030E040E85FE37AD40DC0E4
:1022C00060917C0570917D0580917E0590917F05E0
:1022D00020E030E040E85FE36DD460937C057093CC
:1022E0007D0580937E0590937F050895E1E0F1E000
:1022F000808180638083E2E0F1E080818F7C808355
:1023000084B1806684B985B18F7985B9EAE0F1E05E
:10231000808188618083EBE0F1E08081877E80832B
:10232000089562E083E10E944E2262E082E10E9411
:102330004E2262E082E00E944E2262E083E00E9430
:102340004E2241E050E066E171E184E00E94B01E5F
:1023500041E050E066E471E180E00C94B01E83300F
:10236000910519F470E08EE204C0049721F470E046
:102370008DE20C94332108958330910561F480E25D
:10238000689FB001112480E1489FA0011124462BD1
:10239000409302010895049751F480E4689FB001CE
:1023A000112480E2489FA0011124462B45B90895CD
:1023B0006130710511F441E009C06230710511F41A
:1023C00040E00AC06115710519F440E060E005C005
:1023D0006530710519F441E061E0CECF08954F9268
:1023E0005F926F927F928F929F92AF92BF92CF92A5
:1023F000DF92EF92FF920F931F93CF93DF93EC0145
:102400002A013B014801590120E030E0A901C30144
:10241000B20196D4811106C060E0CE01A0DF60E079
:1024200070E053C020E030E0A901C301B201FCD547
:1024300018160CF5C501B401EFD45B016C01C301A2
:10244000B201EAD41F921F921F922FEF2F93E12C1B
:10245000F12C8701EA9420E030E0A9010E94B92222
:102460000ED5DFD4CE017BDF0F900F900F900F9031
:1024700061E070E02AC020E030E0A901C301B201B0
:102480005FD487FF34C0C501B401C6D45B016C01C1
:10249000C301B201C1D41F921F921F922FEF2F933D
:1024A000EE24E394FF24FA940FEF1FEF20E030E0D6
:1024B000A9010E94B922E3D4B4D4CE0150DF0F9019
:1024C0000F900F900F9062E070E0CE01DF91CF91FE
:1024D0001F910F91FF90EF90DF90CF90BF90AF9042
:1024E0009F908F907F906F905F904F9061CFDF9122
:1024F000CF911F910F91FF90EF90DF90CF90BF9001
:10250000AF909F908F907F906F905F904F900895C5
:102510004F925F926F927F928F929F92AF92BF92F3
:10252000CF92DF92EF92FF920F931F932B013C010A
:10253000670178013FD34B015C0120E030E04FE7B9
:1025400053ECFED387FD10C020E030E04FE753E4AA
:10255000C501B40169D518166CF4812C912C2FE7B4
:10256000A22E23E4B22E06C0812C912C3FE7A32E8D
:1025700033ECB32EA7019601C301B2011BD36B014B
:102580007C0120E030E04FE753ECDAD387FD10C048
:1025900020E030E04FE753E4C701B60145D51816F7
:1025A0006CF4C12CD12C8FE7E82E83E4F82E06C002
:1025B000C12CD12C9FE7E92E93ECF92E00E010E01E
:1025C0002CE032E4B501A40183E090E008DF00E0F4
:1025D00010E028E232E4B701A60184E090E0FFDEDB
:1025E0001F910F91FF90EF90DF90CF90BF90AF9031
:1025F0009F908F907F906F905F904F90089576DEC0
:1026000090CE882331F076DD811103C081E06FDD4B
:1026100074CD0895CF93DF931F92CDB7DEB7AE018F
:102620004F5F5F4F97DAEDDF89810F90DF91CF9198
:102630000895CF93DF931F92CDB7DEB74983EADFCA
:102640004981481749F056DD811106C081E04FDD10
:102650000F90DF91CF9151CD0F90DF91CF910895E1
:102660001092810080E89BEF909385008093840016
:10267000109289001092880010928B0010928A00AC
:1026800010928D0010928C0010928700109286009C
:102690001092800010928200089584E0809381005F
:1026A00081E080936F0008951092910080E79FEF82
:1026B0009093950080939400109299001092980046
:1026C00010929B0010929A0010929D0010929C0014
:1026D0001092970010929600109290001092920023
:1026E000089585E08093910081E0809371000895C2
:1026F0001092A10087E696EC9093A5008093A40029
:102700001092A9001092A8001092AB001092AA009B
:102710001092AD001092AC001092A7001092A6008B
:102720001092A0001092A200089581E08093A10071
:102730008093720008951F920F920FB60F9211248A
:102740002F938F939F93AF93BF9387E696EC9093CD
:10275000A5008093A4008091880590918905A0919F
:102760008A05B0918B050196A11DB11D8093880546
:1027700090938905A0938A05B0938B058091880575
:1027800090918905A0918A05B0918B05883E934070
:10279000A105B105D8F01092880510928905109214
:1027A0008A0510928B058091840590918505A091F2
:1027B0008605B09187050196A11DB11D8093840502
:1027C00090938505A0938605B0938705BF91AF913F
:1027D0009F918F912F910F900FBE0F901F90189582
:1027E000CF92DF92EF92FF92209184053091850580
:1027F0004091860550918705C0908805D090890545
:10280000E0908A05F0908B05A8EEB3E00E9461236A
:102810006C0D7D1D8E1D9F1DFF90EF90DF90CF9062
:102820000895DB0111961C921E92FC014AE0CF0133
:10283000319120ED230F2A3090F46D917C91119706
:10284000469FC001479F900D1124232F30E0205355
:102850003109280F391F11963C932E93E8CF089524
:102860008093BE027093C6026093C5021092C402A8
:102870001092C30294E09093C20296E09093C1023A
:102880002FE330E03093C0022093BF0291E0909399
:10289000920510929305109294051092950510924E
:1028A00096050E943C1EE091C502F091C602DF0130
:1028B0008D91B093C602A093C5028A33A1F781819E
:1028C0008436B9F4CF0103969093C6028093C50273
:1028D0006CE875E0A6DF20918C0530918D0512160D
:1028E000130614F42093C20201969093C6028093BB
:1028F000C502E091C502F091C60220812F36D1F4C5
:10290000CF0102969093C6028093C5026CE875E0F1
:1029100088DF20918C0530918D05A9014350510924
:102920004530510510F42093C10201969093C602E0
:102930008093C502E091C502F091C6022081223643
:10294000B1F4CF0102969093C6028093C5026CE861
:1029500075E067DF20918C0530918D053093C002C2
:102960002093BF0201969093C6028093C5022091E6
:10297000BF023091C00240E050E060E67AEE80E0B5
:1029800090E00E943D23220F331F220F331F30930C
:102990009805209397050895E091BA02F091BB0243
:1029A0008091BE0219956CE875E08091C502909106
:1029B000C60237DFFC019093C6028093C502609186
:1029C0008C0570918D058091970590919805611502
:1029D000710519F46091C20270E00E9407237093A0
:1029E0009105609390058081D5D080938F05E0910B
:1029F000C502F091C6029F012F5F3F4F3093C60280
:102A00002093C5029181933241F48F5F80938F05AB
:102A10003296F093C602E093C502E091C502F091B0
:102A2000C60280818E3291F480919005909191053B
:102A30009C0136952795820F931F90939105809363
:102A400090053196F093C602E093C502E091C5026D
:102A5000F091C602808180538A3040F480938E05C5
:102A60003196F093C602E093C50204C08091C10282
:102A700080938E05E091C502F091C60280818C3270
:102A800029F43196F093C602E093C50260918F0558
:102A9000662359F1209190053091910540E050E076
:102AA00080918E0590E004977CE0789FF001799FFB
:102AB000F00D1124E60FF11DEE0FFF1FE956FB4F3D
:102AC00060817181E091BC02F091BD028091BE02F3
:102AD0001995E091B802F091B902199520919005ED
:102AE000309191052F5F3F4F09C0E091B802F091FE
:102AF000B90219952091900530919105DC01CB0127
:102B0000820F931FA11DB11D80939305909394058F
:102B1000A0939505B093960508950F931F93809108
:102B20009205882339F1E091B802F091B902199524
:102B3000009193051091940520919505309196058B
:102B40006017710782079307A8F0E091C502F09122
:102B5000C602808181110BC010929205E091BA02E9
:102B6000F091BB028091BE021F910F9119941F91A9
:102B70000F9112CF1F910F910895E9E0F5E090E0D9
:102B80002191281729F09F5F9830D1F78FEF089592
:102B9000892F0895F2DF883048F4E82FF0E0EE0F37
:102BA000FF1FE750FB4F80819181089580E090E006
:102BB00008955058BB27AA270ED0FCC1EDD130F0A4
:102BC000F2D120F031F49F3F11F41EF4BDC10EF498
:102BD000E095E7FBB3C1E92FFED180F3BA17620796
:102BE00073078407950718F071F49EF516C20EF46A
:102BF000E0950B2EBA2FA02D0B01B90190010C010D
:102C0000CA01A0011124FF27591B99F0593F50F424
:102C1000503E68F11A16F040A22F232F342F44277C
:102C2000585FF3CF469537952795A795F040539574
:102C3000C9F77EF41F16BA0B620B730B840BBAF044
:102C40009150A1F0FF0FBB1F661F771F881FC2F7AF
:102C50000EC0BA0F621F731F841F48F487957795C3
:102C60006795B795F7959E3F08F0B3CF9395880F7A
:102C700008F09927EE0F9795879508958DD158F014
:102C800080E891E009F49EEF8ED128F040E851E011
:102C900059F45EEF09C058C1C0C1E92FE0789BD15B
:102CA00068F3092E052AC1F3261737074807590785
:102CB00038F00E2E07F8E02569F0E025E0640AC040
:102CC000EF6307F8009407FADB01B9019D01DC010D
:102CD000CA01AD01EF9347D06DD10AD05F91552362
:102CE00031F02BED3FE049E450FD49EC63CF08950E
:102CF000DF93DD27B92FBF7740E85FE3161617068D
:102D000048075B0710F4D92F93D19F938F937F933C
:102D10006F93F8D1E4EEF0E01AD14CD12F913F91AE
:102D20004F915F9198D1DD2349F09058A2EA2AEDA6
:102D30003FE049EC5FE3D0785D274DDFDF913AC19A
:102D4000D9D008F481E008950CD034C12CD140F0E2
:102D500023D130F021F45F3F19F0F0C051115EC172
:102D6000F3C039D198F39923C9F35523B1F3951BD7
:102D7000550BBB27AA2762177307840738F09F5F9C
:102D80005F4F220F331F441FAA1FA9F333D00E2E0B
:102D90003AF0E0E830D091505040E695001CCAF778
:102DA00029D0FE2F27D0660F771F881FBB1F26173D
:102DB00037074807AB07B0E809F0BB0B802DBF0110
:102DC000FF2793585F4F2AF09E3F510568F0B6C029
:102DD00025C15F3FECF3983EDCF3869577956795C8
:102DE000B795F7959F5FC9F7880F911D96958795C1
:102DF00097F90895E1E0660F771F881FBB1F6217E0
:102E000073078407BA0720F0621B730B840BBA0B9D
:102E1000EE1F88F7E095089504D06894B111FEC0C4
:102E20000895E1D088F09F5790F0B92F9927B751B6
:102E3000A0F0D1F0660F771F881F991F1AF0BA957E
:102E4000C9F712C0B13081F0E8D0B1E00895E5C013
:102E5000672F782F8827B85F39F0B93FCCF3869574
:102E600077956795B395D9F73EF4909580957095D1
:102E700061957F4F8F4F9F4F0895E89409C097FB4E
:102E80003EF490958095709561957F4F8F4F9F4F41
:102E90009923A9F0F92F96E9BB279395F695879585
:102EA00077956795B795F111F8CFFAF4BB0F11F448
:102EB00060FF1BC06F5F7F4F8F4F9F4F16C08823EF
:102EC00011F096E911C0772321F09EE8872F762F25
:102ED00005C0662371F096E8862F70E060E02AF066
:102EE0009A95660F771F881FDAF7880F9695879552
:102EF00097F90895990F0008550FAA0BE0E8FEEF27
:102F000016161706E807F907C0F012161306E407AD
:102F1000F50798F0621B730B840B950B39F40A26A6
:102F200061F0232B242B252B21F408950A2609F484
:102F3000A140A6958FEF811D811D089597F99F6788
:102F400080E870E060E008959FEF80EC0895DF93E3
:102F5000CF931F930F93FF92EF92DF927B018C012F
:102F6000689405C0DA2EEF0176D0FE01E894A591B1
:102F70002591359145915591AEF3EF012CDEFE017F
:102F80009701A801DA9479F7DF90EF90FF900F9105
:102F90001F91CF91DF91089500240A941616170609
:102FA00018060906089500240A941216130614063A
:102FB00005060895092E0394000C11F4882352F09D
:102FC000BB0F40F4BF2B11F460FF04C06F5F7F4F55
:102FD0008F4F9F4F089557FD9058440F551F59F03C
:102FE0005F3F71F04795880F97FB991F61F09F3FF6
:102FF00079F087950895121613061406551FF2CF1F
:103000004695F1DF08C0161617061806991FF1CF6E
:1030100086957105610508940895E894BB27662795
:103020007727CB0197F9089565DF08F48FEF0895AE
:103030009B01AC0160E070E080E89FE385CE0BD09F
:10304000B9CFAADF28F0AFDF18F0952309F076CFCB
:103050007BCF1124E3CFBFDFA0F3959FD1F3950F72
:1030600050E0551F629FF001729FBB27F00DB11D0C
:10307000639FAA27F00DB11DAA1F649F6627B00D9C
:10308000A11D661F829F2227B00DA11D621F739F85
:10309000B00DA11D621F839FA00D611D221F749F93
:1030A0003327A00D611D231F849F600D211D822FDA
:1030B000762F6A2F11249F5750408AF0E1F0882321
:1030C0004AF0EE0FFF1FBB1F661F771F881F91502E
:1030D0005040A9F79E3F510570F030CF9FCF5F3F22
:1030E000ECF3983EDCF3869577956795B795F79561
:1030F000E7959F5FC1F7FE2B880F911D96958795E9
:1031000097F908959B01AC019ACFFC01918D228D16
:10311000892F90E0805C9F4F821B91098F739927C4
:103120000895FC01918D828D981731F0828DE80F02
:10313000F11D858D90E008958FEF9FEF0895FC01BC
:10314000918D828D981761F0828DDF01A80FB11DDE
:103150005D968C91928D9F5F9F73928F90E0089502
:103160008FEF9FEF08958BE39AE1892B39F080E090
:1031700090E0892B19F07FD1811125C080E090E08B
:10318000892B41F080E090E0892B21F00E94000023
:1031900081111CC080E090E0892B41F080E090E03C
:1031A000892B21F00E940000811113C080E090E083
:1031B000892BA1F080E090E0892B81F00E94000033
:1031C00081110AC008950E940000D8CF0E9400001B
:1031D000E1CF0E940000EACF0C9400000895FC01AA
:1031E000848DDF01A80FB11DA35ABF4F2C91848D90
:1031F00090E001968F739927848FA689B7892C93C5
:10320000A089B1898C9180648C93938D848D98135F
:1032100006C00288F389E02D80818F7D8083089528
:10322000CF93DF93EC01888D8823C1F0EA89FB8975
:10323000808185FD05C0A889B9898C9186FD0EC065
:103240000FB607FCF5CF808185FFF2CFA889B98939
:103250008C9185FFEDCFCE01C2DFE8CFDF91CF911A
:103260000895EF92FF920F931F93CF93DF93EC019A
:1032700081E0888F9B8D8C8D981305C0E889F98932
:10328000808185FD23C0F62E0B8D10E00F5F1F4F50
:103290000F731127E02E8C8DE8120BC00FB607FCC0
:1032A000FACFE889F989808185FFF5CFCE0197DFD4
:1032B000F2CF8B8DFE01E80FF11DE35AFF4FF08234
:1032C0000B8FEA89FB898081806207C0EE89FF89C4
:1032D0006083E889F98980818064808381E090E05F
:1032E000DF91CF911F910F91FF90EF900895CF92B2
:1032F000DF92EF92FF921F93CF93DF93EC016A016D
:103300007B01122FE889F98982E080834115514EB3
:1033100061057105B1F060E079E08DE390E0A7010F
:1033200096010E941B23DA01C9010197A109B10985
:10333000B695A79597958795AC01411580E15807FB
:10334000A8F0E889F989108260E874E88EE190E0DD
:10335000A70196010E941B23BA01A90141505109FE
:10336000610971097695679557954795EC85FD85B7
:103370005083EE85FF854083188EEC89FD8910838C
:10338000EA89FB89808180618083EA89FB89808169
:1033900088608083EA89FB89808180688083EA89EC
:1033A000FB8980818F7D8083DF91CF911F91FF907A
:1033B000EF90DF90CF9008951F920F920FB60F926B
:1033C00011240BB60F922F938F939F93EF93FF933C
:1033D000E091A905F091AA058081E091AF05F091F7
:1033E000B00582FD12C090818091B2058F5F8F730E
:1033F0002091B305821751F0E091B205F0E0E75655
:10340000FA4F958F8093B20501C08081FF91EF91B3
:103410009F918F912F910F900BBE0F900FBE0F9029
:103420001F9018951F920F920FB60F9211240BB692
:103430000F922F933F934F935F936F937F938F934D
:103440009F93AF93BF93EF93FF9389E995E0C7DE16
:10345000FF91EF91BF91AF919F918F917F916F916C
:103460005F914F913F912F910F900BBE0F900FBE28
:103470000F901F90189589E995E047DE21E0892B90
:1034800009F420E0822F0895E9E9F5E01382128221
:1034900088EE93E0A0E0B0E084839583A683B783B1
:1034A00085E195E09183808385EC90E09587848722
:1034B00084EC90E09787868780EC90E0918B808BFE
:1034C00081EC90E0938B828B82EC90E0958B848BE7
:1034D00086EC90E0978B868B118E128E138E148E55
:1034E000089508955ED6FDDF0E948A0BC3EBD8E1F4
:1034F0000E94A00B2097E1F336DEFACFCF92DF9245
:10350000EF92FF920F931F93CF93DF936C017A0199
:103510008B01C0E0D0E0CE15DF0589F0D8016D91B8
:103520008D01D601ED91FC910190F081E02DC60155
:103530001995892B11F47E0102C02196ECCFC701A9
:10354000DF91CF911F910F91FF90EF90DF90CF907F
:1035500008953F924F925F926F927F928F929F92C7
:10356000AF92BF92CF92DF92EF92FF920F931F9391
:10357000CF93DF9300D01F92CDB7DEB729013A0178
:103580009091C702981721F09F3F09F025C304C00E
:10359000E8E6F1E0349004C18093C702E8E6F1E088
:1035A000E491EF3F09F418C3E23009F480C074F5E8
:1035B000EE2309F45BC0E13009F0F1C01092800005
:1035C0001092810090918100986090938100909179
:1035D0008100916090938100282F30E0F901EB5039
:1035E000FE4FE491F0E0EE0FFF1FE55CFD4F4591CB
:1035F00054915093540640935306F901E155FE4F00
:10360000E491E093520633243394CCC0E43009F4BF
:103610009EC00CF474C0E53009F0C1C010922001C6
:103620001092210190912101986090932101909135
:103630002101916090932101482F50E0FA01EB5055
:10364000FE4FE491F0E0EE0FFF1FE55CFD4F25918A
:1036500034913093380620933706FA01E155FE4F36
:10366000E491E0933606B5E03B2E9CC014BC15BC3B
:1036700094B5926094BD95B5916095BD282F30E0CA
:10368000F901EB50FE4FE491F0E0EE0FFF1FE55C17
:10369000FD4F4591549150935B0640935A06F901B2
:1036A000E155FE4FE491E0935906312C7BC0109216
:1036B000B0001092B1009091B00092609093B00071
:1036C0009091B10091609093B100282F30E0F90102
:1036D000EB50FE4FE491F0E0EE0FFF1FE55CFD4F75
:1036E0004591549150934D0640934C06F901E15594
:1036F000FE4FE491E0934B0652E0352E53C01092FA
:103700009000109291009091910098609093910098
:1037100090919100916090939100282F30E0F901F1
:10372000EB50FE4FE491F0E0EE0FFF1FE55CFD4F24
:10373000459154915093460640934506F901E15551
:10374000FE4FE491E093440623E0322E2BC010920A
:10375000A0001092A1009091A10098609093A10008
:103760009091A10091609093A100282F30E0F90181
:10377000EB50FE4FE491F0E0EE0FFF1FE55CFD4FD4
:103780004591549150933F0640933E06F901E1550F
:10379000FE4FE491E0933D0604E0302E03C03E2E40
:1037A00037FC1AC28B0161E079D64801A12CB12CFB
:1037B000832D8D7F09F0B5C060E072E18AE790E06B
:1037C000A50194015AD729833A834B835C8369010D
:1037D0007A0121E0C21AD108E108F1088FEFC8167A
:1037E000D104E104F10409F008F449C060E472E492
:1037F0008FE090E0A501940140D769017A0191E042
:10380000C91AD108E108F108E2E03E121FC0FFEF3B
:10381000CF16D104E104F10409F008F4DBC160E93A
:1038200070ED83E090E0A501940127D769017A014A
:1038300081E0C81AD108E108F1089FEFC916D10448
:10384000E104F10409F0C8F583E064C0EFEFCE169F
:10385000D104E104F104A9F0A0F068E478EE81E07D
:1038600090E0A501940109D769017A01F1E0CF1A2E
:10387000D108E108F108332009F454C1A2C181E064
:1038800001C082E03320A1F045C089819A81AB81DB
:10389000BC812AE0B595A795979587952A95D1F78C
:1038A0006C017D01F1E0CF1AD108E108F10885E053
:1038B00095B5987F892B85BDA2C068E478EE81E03C
:1038C00090E0A5019401D9D669017A0181E0C81A76
:1038D000D108E108F1089FEFC916D104E104F10411
:1038E00009F008F41DC164E274EF80E090E0A501E6
:1038F0009401C3D669017A0181E0C81AD108E108B0
:10390000F1089FEFC916D104E104F10411F008F0A9
:103910002AC185E09091B100987F892B8093B100F6
:103920006EC060E072E18AE790E0A5019401A5D63F
:1039300069017A01F1E0CF1AD108E108F108C11458
:10394000D10421E0E206F10480F068E478EE81E041
:1039500090E0A501940191D669017A0181E0C81A2D
:10396000D108E108F10883E001C081E091E039125B
:1039700010C090918100987F892B80938100411421
:1039800051046104710409F03FC02FEF3FEFA9011A
:103990006FC0E3E03E120FC090919100987F892B99
:1039A00080939100411451046104710469F52FEF73
:1039B0003FEFA9017FC0F4E03F120FC09091A1003A
:1039C000987F892B8093A1004114510461047104F4
:1039D000D9F42FEF3FEFA9017FC025E032120FC0CD
:1039E00090912101987F892B8093210141145104EA
:1039F0006104710449F42FEF3FEFA9017FC0411426
:103A000051046104710461F0D801AA0FBB1FA30126
:103A1000920157D628EE33E040E050E00CD603C0C8
:103A20002FEF3FEFA90182E03816A1F1831534F0A2
:103A3000332079F091E03916D9F0CEC0E4E03E169B
:103A400009F44AC03E16B4F1F5E03F1609F456C039
:103A5000C3C0C7BC20935C0630935D0640935E06EE
:103A600050935F0680916E00826080936E00B4C0B8
:103A7000D0928900C0928800209355063093560654
:103A8000409357065093580680916F008260809350
:103A90006F00A2C0C092B30020934E0630934F0631
:103AA000409350065093510680917000826080933D
:103AB000700092C0D0929900C0929800209347065F
:103AC000309348064093490650934A06809171000E
:103AD00082608093710080C0D092A900C092A8003B
:103AE000209340063093410640934206509343068C
:103AF000809172008260809372006EC0D092290122
:103B0000C09228012093390630933A0640933B0631
:103B100050933C06809173008260809373005CC078
:103B200084E0F8CE2FEFC216D104E104F104C9F00D
:103B3000C0F062E17AE780E090E0A50194019DD5B4
:103B400069017A01E1E0CE1AD108E108F108FFEF3E
:103B5000CF16D104E104F10411F008F096CE84E010
:103B6000A7CE83E0A5CE62E17AE780E090E0A501F0
:103B7000940183D569017A0181E0C81AD108E1086E
:103B8000F1089FEFC916D104E104F104C1F0B8F0C7
:103B900089819A81AB81BC814AE0B595A7959795BB
:103BA00087954A95D1F76C017D01E1E0CE1AD108E5
:103BB000E108F108332009F47ACE87E0ABCE86E045
:103BC00061CEEFEFCE16D104E104F10409F058F60E
:103BD00084E058CE82E09ECE0F900F900F900F9011
:103BE000DF91CF911F910F91FF90EF90DF90CF90D9
:103BF000BF90AF909F908F907F906F905F904F900D
:103C00003F9008958230A9F028F4882349F081304C
:103C100051F00895843021F1E8F0853039F10895AC
:103C200010926E00089580916F008D7F80936F00D9
:103C30000895809170008D7F8093700081E0809363
:103C4000B0008091B100887F84608093B1001092B1
:103C5000B3000895809171008D7F80937100089565
:103C6000809172008D7F809372000895809173001F
:103C70008D7F809373000895CF93C82F8091C702E2
:103C80008C1307C0E8E6F1E0E4918FEF8093C70260
:103C900001C0EFEF8E2FB6DF60E08C2FCF913AC4DA
:103CA0001F920F920FB60F9211240BB60F922F9303
:103CB0003F934F935F936F937F938F939F93AF93B4
:103CC000BF93EF93FF9380914E0690914F06A09182
:103CD0005006B0915106892B8A2B8B2B51F1809184
:103CE0004B06E0914C06F0914D0690818927808328
:103CF00080914E0690914F06A0915006B0915106CA
:103D0000181619061A061B06BCF480914E069091EF
:103D10004F06A0915006B09151060197A109B10933
:103D200080934E0690934F06A0935006B093510691
:103D300003C08091C702A0DFFF91EF91BF91AF91C7
:103D40009F918F917F916F915F914F913F912F91B3
:103D50000F900BBE0F900FBE0F901F9018950895F7
:103D6000883008F06FC0A82FB0E0AA0FBB1FA8537F
:103D7000BD4F11967C936E9390E0FC013197E73034
:103D8000F10598F58827E757FF4F8F4F92C4809130
:103D900069008C7F482B40936900E89A08958091D0
:103DA0006900440F551F440F551F837F482B4093D4
:103DB0006900E99A08958091690074E0440F551FE5
:103DC0007A95E1F78F7C482B40936900EA9A089531
:103DD0008091690066E0440F551F6A95E1F78F7383
:103DE000482B40936900EB9A089580916A008C7F7C
:103DF000482B40936A00EC9A089580916A00440F22
:103E0000551F440F551F837F482B40936A00ED9A3E
:103E1000089580916A0024E0440F551F2A95E1F728
:103E20008F7C482B40936A00EE9A089580916A0037
:103E300096E0440F551F9A95E1F78F73482B4093F6
:103E40006A00EF9A08951F920F920FB60F921124F5
:103E50000BB60F922F933F934F935F936F937F9384
:103E60008F939F93AF93BF93EF93FF93E091CC0217
:103E7000F091CD021995FF91EF91BF91AF919F9174
:103E80008F917F916F915F914F913F912F910F9003
:103E90000BBE0F900FBE0F901F9018951F920F92A0
:103EA0000FB60F9211240BB60F922F933F934F939F
:103EB0005F936F937F938F939F93AF93BF93EF9392
:103EC000FF93E091CE02F091CF021995FF91EF910F
:103ED000BF91AF919F918F917F916F915F914F9122
:103EE0003F912F910F900BBE0F900FBE0F901F9020
:103EF00018951F920F920FB60F9211240BB60F92C6
:103F00002F933F934F935F936F937F938F939F93E1
:103F1000AF93BF93EF93FF93E091D002F091D10262
:103F20001995FF91EF91BF91AF919F918F917F91E3
:103F30006F915F914F913F912F910F900BBE0F901A
:103F40000FBE0F901F9018951F920F920FB60F92F1
:103F500011240BB60F922F933F934F935F936F9360
:103F60007F938F939F93AF93BF93EF93FF93E091D2
:103F7000D202F091D3021995FF91EF91BF91AF91C9
:103F80009F918F917F916F915F914F913F912F9171
:103F90000F900BBE0F900FBE0F901F9018951F92A1
:103FA0000F920FB60F9211240BB60F922F933F93DF
:103FB0004F935F936F937F938F939F93AF93BF9331
:103FC000EF93FF93E091C802F091C9021995FF9118
:103FD000EF91BF91AF919F918F917F916F915F9181
:103FE0004F913F912F910F900BBE0F900FBE0F90EE
:103FF0001F9018951F920F920FB60F9211240BB6B7
:104000000F922F933F934F935F936F937F938F9371
:104010009F93AF93BF93EF93FF93E091CA02F09108
:10402000CB021995FF91EF91BF91AF919F918F9125
:104030007F916F915F914F913F912F910F900BBEA8
:104040000F900FBE0F901F9018951F920F920FB6F2
:104050000F9211240BB60F922F933F934F935F93C0
:104060006F937F938F939F93AF93BF93EF93FF9340
:10407000E091D402F091D5021995FF91EF91BF9193
:10408000AF919F918F917F916F915F914F913F91F0
:104090002F910F900BBE0F900FBE0F901F90189591
:1040A0001F920F920FB60F9211240BB60F922F93FF
:1040B0003F934F935F936F937F938F939F93AF93B0
:1040C000BF93EF93FF93E091D602F091D702199539
:1040D000FF91EF91BF91AF919F918F917F916F91E0
:1040E0005F914F913F912F910F900BBE0F900FBE9C
:1040F0000F901F9018951F920F920FB60F921124D8
:104100002F933F938F939F93AF93BF9380916106BB
:1041100090916206A0916306B091640630916006AA
:1041200023E0230F2D3720F40196A11DB11D05C0FA
:1041300026E8230F0296A11DB11D209360068093EF
:10414000610690936206A0936306B0936406809123
:10415000650690916606A0916706B0916806019683
:10416000A11DB11D8093650690936606A093670616
:10417000B0936806BF91AF919F918F913F912F911E
:104180000F900FBE0F901F9018952FB7F894609165
:1041900061067091620680916306909164062FBF5C
:1041A0000895789484B5826084BD84B5816084BDAF
:1041B00085B5826085BD85B5816085BDEEE6F0E0A0
:1041C000808181608083E1E8F0E0108280818260FC
:1041D0008083808181608083E0E8F0E0808181607D
:1041E0008083E1EBF0E0808184608083E0EBF0E0AD
:1041F000808181608083E1E9F0E08081826080835A
:10420000808181608083E0E9F0E08081816080834B
:10421000E1EAF0E080818260808380818160808338
:10422000E0EAF0E0808181608083E1E2F1E080817A
:1042300082608083808181608083E0E2F1E0808120
:1042400081608083EAE7F0E0808184608083808100
:1042500082608083808181608083808180688083A8
:104260001092C10008951F93CF93DF93182FEB0195
:1042700061E014D1209711F460E004C0CF3FD10574
:1042800031F461E0812FDF91CF911F9143C1E12F84
:10429000F0E0E759FE4FE4914E2F50E0FA013197DC
:1042A000E231F10508F09CC08827E057FF4F8F4F9F
:1042B00000C284B5806884BDC7BD97C084B58062E4
:1042C00084BDC8BD92C080918000806880938000CA
:1042D000D0938900C093880088C08091800080625C
:1042E00080938000D0938B00C0938A007EC0809121
:1042F0008000886080938000D0938D00C0938C00F4
:1043000074C08091B00080688093B000C093B30007
:104310006CC08091B00080628093B000C093B40004
:1043200064C080919000806880939000D093990041
:10433000C09398005AC08091900080628093900052
:10434000D0939B00C0939A0050C0809190008860E9
:1043500080939000D0939D00C0939C0046C08091B4
:10436000A00080688093A0008091A0008F7B809344
:10437000A000D093A900C093A80037C08091A000EE
:1043800080628093A000D093AB00C093AA002DC0A0
:104390008091A00088608093A000D093AD00C0936E
:1043A000AC0023C080912001806880932001D093CD
:1043B0002901C093280119C0809120018062809357
:1043C0002001D0932B01C0932A010FC080912001BE
:1043D000886080932001D0932D01C0932C0105C0EB
:1043E000C038D1050CF04DCF47CFDF91CF911F9151
:1043F000089590E0FC013197E231F10508F04DC0DD
:104400008827EE55FF4F8F4F54C1809180008F77E2
:1044100003C0809180008F7D8093800008958091FB
:104420008000877FF9CF84B58F7702C084B58F7DF8
:1044300084BD08958091B0008F7703C08091B00053
:104440008F7D8093B0000895809190008F7707C092
:10445000809190008F7D03C080919000877F809332
:10446000900008958091A0008F7707C08091A000F0
:104470008F7D03C08091A000877F8093A000089566
:10448000809120018F7707C0809120018F7D03C02C
:1044900080912001877F809320010895CF93DF933F
:1044A00090E0FC01E155FE4F2491FC01EB50FE4FE2
:1044B0008491882361F190E0880F991FFC01EB5AE9
:1044C000FD4FC591D491FC01E55CFD4FA591B491E0
:1044D000611109C09FB7F894888120958223888351
:1044E000EC912E230BC0623061F49FB7F8943881B1
:1044F000822F809583238883EC912E2B2C939FBF52
:1045000006C08FB7F894E8812E2B28838FBFDF91E8
:10451000CF9108951F93CF93DF93282F30E0F901B7
:10452000E759FE4F8491F901E155FE4FD491F9010D
:10453000EB50FE4FC491CC23C1F0162F811159DFEF
:10454000EC2FF0E0EE0FFF1FE55CFD4FA591B4915D
:104550008FB7F894111105C09C91ED2FE095E923D8
:1045600002C0EC91ED2BEC938FBFDF91CF911F91A7
:1045700008954F925F926F927F92AF92BF92CF92C7
:10458000DF92EF92FF920F931F93CF93DF93CDB7FC
:10459000DEB729013A019B01AC012419350946090E
:1045A00057098A899B89AC89BD89BC01CD016A19EB
:1045B0007B098C099D091CD0A80197012419350994
:1045C000460957095AD0CA01B9016A0D7B1D8C1DD5
:1045D0009D1DDF91CF911F910F91FF90EF90DF9084
:1045E000CF90BF90AF907F906F905F904F90089565
:1045F000DB018F939F9365D0BF91AF91A29F800DF8
:10460000911DA39F900DB29F900D11240895AA1B98
:10461000BB1B51E107C0AA1FBB1FA617B70710F0AD
:10462000A61BB70B881F991F5A95A9F780959095DF
:10463000BC01CD010895A1E21A2EAA1BBB1BFD01EE
:104640000DC0AA1FBB1FEE1FFF1FA217B307E40771
:10465000F50720F0A21BB30BE40BF50B661F771FC9
:10466000881F991F1A9469F76095709580959095A9
:104670009B01AC01BD01CF010895052E97FB16F4F7
:1046800000940FD057FD05D0D6DF07FC02D046F4CA
:1046900008C050954095309521953F4F4F4F5F4F43
:1046A000089590958095709561957F4F8F4F9F4F9E
:1046B0000895EE0FFF1F881F8BBF0790F691E02D26
:1046C000199409D0A59F900DB49F900DA49F800DC3
:1046D000911D11240895A29FB001B39FC001A39F13
:1046E000700D811D1124911DB29F700D811D11242B
:0846F000911D0895F894FFCF1D
:1046F8000000C03F00000000000000003333034109
:1047080000000000000000000000000000000000A1
:104718000000000000000000000000000000000091
:1047280000000000000000007041000000000000D0
:1047380080400000A04000000000000000000000D1
:104748000000000000000000000000000000000061
:1047580000000000000000000000000000006041B0
:10476800CDCC4C400000D8410000A0410000804062
:1047780000000042000000000000000000000000EF
:104788000000000000000000000000000000000021
:104798000000010000004000008040D8029B03F5A3
:1047A8000332045A04010101C5203C1EA91AFF3F27
:1047B80000050408809604FFAF1EAF1EAF1EAF1E93
:1047C800AF1EAF1EAF1EAF1E4D697373696F6E4982
:1047D8006D703A643D31362C6F3D372C623D39356A
:1047E8003A672C38702C672C38702C61232C702C6D
:1047F80063372C702C672C38702C672C38702C661B
:104808002C702C66232C702C672C38702C672C3855
:10481800702C61232C702C63372C702C672C38700B
:104828002C672C38702C662C702C66232C702C610D
:10483800232C672C32642C3332702C61232C672C88
:104848003263232C3332702C61232C672C32632C77
:104858006123352C38632C32702C3332702C612351
:10486800352C67352C3266232C3332702C61233576
:104878002C67352C32662C3332702C6123352C672B
:10488800352C32652C64232C38640042757A7A659D
:1048980072323A643D31362C6F3D372C623D3935E2
:1048A8003A3332642C333264232C3332642C33325F
:1048B80064232C3332642C333264232C3332642C3B
:1048C800333264232C3332642C3332642C33326415
:1048D800232C3332652C3332662C333266232C3347
:1048E80032672C670042757A7A65723A643D382CD3
:1048F8006F3D362C623D3230303A3867362C386599
:10490800362C3863362C3866362C3863372C3467A7
:104918002E362C313666362C313667362C34632EDB
:10492800370052656164793A643D382C6F3D362C06
:10493800623D3138303A313665362C313666362CA0
:10494800313667362C38632E3700537461727475AC
:10495800703A643D382C6F3D362C623D3230303A27
:1049680038632E362C38632E372C38672E362C3881
:1049780066362C34652E362C313666362C31366741
:10498800362C34632E370000000601150126013746
:10499800014A015D01720188019F01B801D201EE4F
:1049A800010B022A024B026E029302BA02E40210C1
:1049B800033F037003A403DC03170455049704DDC5
:1049C8000427057505C80520067D06E0064907B8D1
:1049D800072D08A9082D09B9094D0AEA0A900B40C4
:1049E8000CFA0CC00D910E6F0F01000300050006B4
:1049F8000008000A000C00000063646566676162D5
:104A0800700000000031197E1A85189F189118103F
:024A1800190083
:00000001FF
